{
  "contractName": "ProductContract",
  "abi": [
    {
      "constant": true,
      "inputs": [
        {
          "internalType": "string",
          "name": "id",
          "type": "string"
        }
      ],
      "name": "getProduct",
      "outputs": [
        {
          "internalType": "string",
          "name": "",
          "type": "string"
        },
        {
          "internalType": "string",
          "name": "",
          "type": "string"
        },
        {
          "internalType": "string",
          "name": "",
          "type": "string"
        },
        {
          "internalType": "string",
          "name": "",
          "type": "string"
        },
        {
          "internalType": "string",
          "name": "",
          "type": "string"
        }
      ],
      "payable": false,
      "stateMutability": "view",
      "type": "function"
    },
    {
      "constant": false,
      "inputs": [
        {
          "internalType": "string",
          "name": "id",
          "type": "string"
        },
        {
          "internalType": "string",
          "name": "pn",
          "type": "string"
        },
        {
          "internalType": "string",
          "name": "co",
          "type": "string"
        },
        {
          "internalType": "string",
          "name": "po",
          "type": "string"
        },
        {
          "internalType": "string",
          "name": "pd",
          "type": "string"
        }
      ],
      "name": "setProduct",
      "outputs": [],
      "payable": false,
      "stateMutability": "nonpayable",
      "type": "function"
    },
    {
      "constant": false,
      "inputs": [
        {
          "internalType": "string",
          "name": "id",
          "type": "string"
        },
        {
          "internalType": "string",
          "name": "_name",
          "type": "string"
        }
      ],
      "name": "setProductOwnerName",
      "outputs": [],
      "payable": false,
      "stateMutability": "nonpayable",
      "type": "function"
    }
  ],
  "bytecode": "0x608060405234801561001057600080fd5b50610aba806100206000396000f3fe608060405234801561001057600080fd5b50600436106100415760003560e01c806322a1a4491461004657806368111cce14610062578063bca5944914610096575b600080fd5b610060600480360361005b91908101906107be565b6100b2565b005b61007c60048036036100779190810190610711565b610192565b60405161008d95949392919061092e565b60405180910390f35b6100b060048036036100ab9190810190610752565b61055e565b005b6040518060a00160405280858152602001868152602001848152602001838152602001828152506000866040516100e99190610917565b90815260200160405180910390206000820151816000019080519060200190610113929190610598565b506020820151816001019080519060200190610130929190610598565b50604082015181600201908051906020019061014d929190610598565b50606082015181600301908051906020019061016a929190610598565b506080820151816004019080519060200190610187929190610598565b509050505050505050565b60608060608060606000866040516101aa9190610917565b90815260200160405180910390206000016000876040516101cb9190610917565b90815260200160405180910390206001016000886040516101ec9190610917565b908152602001604051809103902060020160008960405161020d9190610917565b908152602001604051809103902060030160008a60405161022e9190610917565b9081526020016040518091039020600401848054600181600116156101000203166002900480601f0160208091040260200160405190810160405280929190818152602001828054600181600116156101000203166002900480156102d45780601f106102a9576101008083540402835291602001916102d4565b820191906000526020600020905b8154815290600101906020018083116102b757829003601f168201915b50505050509450838054600181600116156101000203166002900480601f0160208091040260200160405190810160405280929190818152602001828054600181600116156101000203166002900480156103705780601f1061034557610100808354040283529160200191610370565b820191906000526020600020905b81548152906001019060200180831161035357829003601f168201915b50505050509350828054600181600116156101000203166002900480601f01602080910402602001604051908101604052809291908181526020018280546001816001161561010002031660029004801561040c5780601f106103e15761010080835404028352916020019161040c565b820191906000526020600020905b8154815290600101906020018083116103ef57829003601f168201915b50505050509250818054600181600116156101000203166002900480601f0160208091040260200160405190810160405280929190818152602001828054600181600116156101000203166002900480156104a85780601f1061047d576101008083540402835291602001916104a8565b820191906000526020600020905b81548152906001019060200180831161048b57829003601f168201915b50505050509150808054600181600116156101000203166002900480601f0160208091040260200160405190810160405280929190818152602001828054600181600116156101000203166002900480156105445780601f1061051957610100808354040283529160200191610544565b820191906000526020600020905b81548152906001019060200180831161052757829003601f168201915b505050505090509450945094509450945091939590929450565b8060008360405161056f9190610917565b90815260200160405180910390206003019080519060200190610593929190610618565b505050565b828054600181600116156101000203166002900490600052602060002090601f016020900481019282601f106105d957805160ff1916838001178555610607565b82800160010185558215610607579182015b828111156106065782518255916020019190600101906105eb565b5b5090506106149190610698565b5090565b828054600181600116156101000203166002900490600052602060002090601f016020900481019282601f1061065957805160ff1916838001178555610687565b82800160010185558215610687579182015b8281111561068657825182559160200191906001019061066b565b5b5090506106949190610698565b5090565b6106ba91905b808211156106b657600081600090555060010161069e565b5090565b90565b600082601f8301126106ce57600080fd5b81356106e16106dc826109d1565b6109a4565b915080825260208301602083018583830111156106fd57600080fd5b610708838284610a24565b50505092915050565b60006020828403121561072357600080fd5b600082013567ffffffffffffffff81111561073d57600080fd5b610749848285016106bd565b91505092915050565b6000806040838503121561076557600080fd5b600083013567ffffffffffffffff81111561077f57600080fd5b61078b858286016106bd565b925050602083013567ffffffffffffffff8111156107a857600080fd5b6107b4858286016106bd565b9150509250929050565b600080600080600060a086880312156107d657600080fd5b600086013567ffffffffffffffff8111156107f057600080fd5b6107fc888289016106bd565b955050602086013567ffffffffffffffff81111561081957600080fd5b610825888289016106bd565b945050604086013567ffffffffffffffff81111561084257600080fd5b61084e888289016106bd565b935050606086013567ffffffffffffffff81111561086b57600080fd5b610877888289016106bd565b925050608086013567ffffffffffffffff81111561089457600080fd5b6108a0888289016106bd565b9150509295509295909350565b60006108b8826109fd565b6108c28185610a08565b93506108d2818560208601610a33565b6108db81610a66565b840191505092915050565b60006108f1826109fd565b6108fb8185610a19565b935061090b818560208601610a33565b80840191505092915050565b600061092382846108e6565b915081905092915050565b600060a082019050818103600083015261094881886108ad565b9050818103602083015261095c81876108ad565b9050818103604083015261097081866108ad565b9050818103606083015261098481856108ad565b9050818103608083015261099881846108ad565b90509695505050505050565b6000604051905081810181811067ffffffffffffffff821117156109c757600080fd5b8060405250919050565b600067ffffffffffffffff8211156109e857600080fd5b601f19601f8301169050602081019050919050565b600081519050919050565b600082825260208201905092915050565b600081905092915050565b82818337600083830152505050565b60005b83811015610a51578082015181840152602081019050610a36565b83811115610a60576000848401525b50505050565b6000601f19601f830116905091905056fea365627a7a723158207987dcd3d3eeea032a8bffba6bd847fde854d3ca232f81fefe1dd69a5184effe6c6578706572696d656e74616cf564736f6c63430005100040",
  "source": "// SPDX-License-Identifier: MIT\r\n\r\npragma solidity <= 0.8.4;\r\npragma experimental ABIEncoderV2;\r\n\r\ncontract ProductContract {\r\n    struct Product{\r\n        string product_name;\r\n        string product_id;\r\n        string company_owner;\r\n        string product_owner;\r\n        string product_detail;\r\n        }\r\n        \r\n    mapping(string=>Product)  pr;\r\n    \r\n    function getProduct(string memory id) view public returns(string memory,string memory,string memory,string memory,string memory){\r\n        \r\n        return (pr[id].product_name,pr[id].product_id,pr[id].company_owner,pr[id].product_owner,pr[id].product_detail);\r\n        \r\n    }\r\n    \r\n    function setProduct(string memory id,string memory pn,string memory co ,string memory po,string memory pd) public\r\n    {\r\n        pr[id]=Product(pn,id,co,po,pd);\r\n    }\r\n    \r\n    function setProductOwnerName(string memory id,string memory _name) public{\r\n        pr[id].product_owner=_name;\r\n    } \r\n}",
  "sourcePath": "C:\\Users\\arya\\Desktop\\code\\Blockchain\\First\\contracts\\ProductContract.sol",
  "compiler": {
    "name": "solc",
    "version": "0.5.16+commit.9c3226ce.Emscripten.clang"
  },
  "schemaVersion": "3.4.2",
  "updatedAt": "2021-08-24T14:50:40.177Z",
  "networkType": "ethereum",
  "devdoc": {
    "methods": {}
  },
  "userdoc": {
    "methods": {}
  }
}